{
  "transactions": [
    {
      "hash": "0x41bad8328efac6bc98830a4e6053193f3ac3174983e74ab9e8e52fc47a7baab0",
      "transactionType": "CALL",
      "contractName": "WETH9",
      "contractAddress": "0x24A6F9C58EC4c3e8C009Ae7E4E07B17Df019a47a",
      "function": "deposit()",
      "arguments": [],
      "transaction": {
        "type": "0x02",
        "from": "0xff65689a4aeb6eadd18cad2de0022f8aa18b67de",
        "to": "0x24a6f9c58ec4c3e8c009ae7e4e07b17df019a47a",
        "gas": "0x10145",
        "value": "0x16345785d8a0000",
        "data": "0xd0e30db0",
        "nonce": "0x3e",
        "accessList": []
      },
      "additionalContracts": [],
      "isFixedGasLimit": false
    },
    {
      "hash": "0xeacb01724713e38845538ec1643aefef0c4215935f50daaeb2523470207b842d",
      "transactionType": "CALL",
      "contractName": "Token",
      "contractAddress": "0xaCB3bc70A807fa1F5f36c80C7C2c0402d9341D5B",
      "function": "mint(address,uint256)",
      "arguments": [
        "0xfF65689a4AEB6EaDd18caD2dE0022f8Aa18b67de",
        "1000000000000000000000"
      ],
      "transaction": {
        "type": "0x02",
        "from": "0xff65689a4aeb6eadd18cad2de0022f8aa18b67de",
        "to": "0xacb3bc70a807fa1f5f36c80c7c2c0402d9341d5b",
        "gas": "0x123bd",
        "value": "0x0",
        "data": "0x40c10f19000000000000000000000000ff65689a4aeb6eadd18cad2de0022f8aa18b67de00000000000000000000000000000000000000000000003635c9adc5dea00000",
        "nonce": "0x3f",
        "accessList": []
      },
      "additionalContracts": [],
      "isFixedGasLimit": false
    },
    {
      "hash": "0xb89f5f9812587668af636629254d7092d2b7a805a1febebd595dc0d18f59ab60",
      "transactionType": "CALL",
      "contractName": "UniswapV2Factory",
      "contractAddress": "0x6c4e0B7330B5D2d975Cf74b77f89b5471F2793Be",
      "function": "createPair(address,address)",
      "arguments": [
        "0xaCB3bc70A807fa1F5f36c80C7C2c0402d9341D5B",
        "0x24A6F9C58EC4c3e8C009Ae7E4E07B17Df019a47a"
      ],
      "transaction": {
        "type": "0x02",
        "from": "0xff65689a4aeb6eadd18cad2de0022f8aa18b67de",
        "to": "0x6c4e0b7330b5d2d975cf74b77f89b5471f2793be",
        "gas": "0x355991",
        "value": "0x0",
        "data": "0xc9c65396000000000000000000000000acb3bc70a807fa1f5f36c80c7c2c0402d9341d5b00000000000000000000000024a6f9c58ec4c3e8c009ae7e4e07b17df019a47a",
        "nonce": "0x40",
        "accessList": []
      },
      "additionalContracts": [
        {
          "transactionType": "CREATE2",
          "address": "0x77366F5c0E2dB68493a57f0c1663f482c2300E14",
          "initCode": "0x60808060405234620000f1576020816200001b600a93620000f6565b82815201692ab734b9bbb0b8102b1960b11b815220600160206040516200004281620000f6565b82815201603160f81b815220906040519160208301917f8b73c3c69bb8fe3d512ecc4cf759cc79239f7b179b0ffacaa9a75d522b39400f8352604084015260608301524660808301523060a083015260a0825260c082019180831060018060401b03841117620000db5760408390525190206003556001600c55600580546001600160a01b031916331790556129839081620001138239f35b634e487b7160e01b600052604160045260246000fd5b600080fd5b604081019081106001600160401b03821117620000db5760405256fe6080604052600436101561001257600080fd5b6000803560e01c8063022c0d9f1461170657806306fdde03146116925780630902f1ac1461160d578063095ea7b3146115c85780630dfe16811461157657806318160ddd1461153b57806323b872dd1461145057806330adf81f146108e7578063313ce567146114165780633644e515146113da578063485cc955146112e15780635909c0d5146112a55780635a3d5493146112695780636a62784214610eba57806370a0823114610e575780637464fc3d14610e1b5780637ecebe0014610db857806389afcb44146109b857806395d89b4114610940578063982aaf6b146108e7578063a9059cbb14610897578063ba9a7a561461085c578063bc25cf77146106cc578063c45a01551461067a578063d21220a714610628578063d505accf14610348578063dd62ed3e146102cd5763fff6cae91461015157600080fd5b346102ca57807ffffffffffffffffffffffffffffffffffffffffffffffffffffffffffffffffc3601126102ca5761018d6001600c54146121f3565b80600c5573ffffffffffffffffffffffffffffffffffffffff80600654169060405190817f70a08231000000000000000000000000000000000000000000000000000000009384825230600483015281602460209586935afa9182156102bf578391869361028e575b50600754169360246040518096819382523060048301525afa91821561028357849261024c575b506102449250600854916dffffffffffffffffffffffffffff808460701c169316916123e7565b6001600c5580f35b90915082813d831161027c575b6102638183611f47565b81010312610277576102449151903861021d565b600080fd5b503d610259565b6040513d86823e3d90fd5b8281939294503d83116102b8575b6102a68183611f47565b810103126102775782905191386101f6565b503d61029c565b6040513d87823e3d90fd5b80fd5b50346102ca5760407ffffffffffffffffffffffffffffffffffffffffffffffffffffffffffffffffc3601126102ca57610305611ec9565b604061030f611eec565b9273ffffffffffffffffffffffffffffffffffffffff809316815260026020522091166000526020526020604060002054604051908152f35b50346102ca5760e07ffffffffffffffffffffffffffffffffffffffffffffffffffffffffffffffffc3601126102ca57610380611ec9565b610388611eec565b604435906064356084359060ff8216809203610624574281106105c65760035473ffffffffffffffffffffffffffffffffffffffff9182871693848952600460205260408920908154917fffffffffffffffffffffffffffffffffffffffffffffffffffffffffffffffff8314610599576001830190556040519260208401927f6e71edae12b1b97f4d1f60370fef10105fa2faae0126114a169c64845d6126c98452876040860152868916606086015289608086015260a085015260c084015260c0835260e083019383851067ffffffffffffffff86111761056a57848b9461012260809560209860405282519020916101008101947f190100000000000000000000000000000000000000000000000000000000000086526101028201520152604281526104b781611f2b565b519020906040519182528482015260a435604082015260c435606082015282805260015afa156102bf57855116908115159182610560575b505015610502576104ff92611fee565b80f35b60646040517f08c379a000000000000000000000000000000000000000000000000000000000815260206004820152601c60248201527f556e697377617056323a20494e56414c49445f5349474e4154555245000000006044820152fd5b14905038806104ef565b7f4e487b7100000000000000000000000000000000000000000000000000000000600052604160045260246000fd5b60248b7f4e487b710000000000000000000000000000000000000000000000000000000081526011600452fd5b60646040517f08c379a000000000000000000000000000000000000000000000000000000000815260206004820152601260248201527f556e697377617056323a204558504952454400000000000000000000000000006044820152fd5b8580fd5b50346102ca57807ffffffffffffffffffffffffffffffffffffffffffffffffffffffffffffffffc3601126102ca57602073ffffffffffffffffffffffffffffffffffffffff60075416604051908152f35b50346102ca57807ffffffffffffffffffffffffffffffffffffffffffffffffffffffffffffffffc3601126102ca57602073ffffffffffffffffffffffffffffffffffffffff60055416604051908152f35b50346102ca576020807ffffffffffffffffffffffffffffffffffffffffffffffffffffffffffffffffc36011261085857610705611ec9565b906107146001600c54146121f3565b82600c5573ffffffffffffffffffffffffffffffffffffffff918260065416926007541691604051937f70a0823100000000000000000000000000000000000000000000000000000000908186523060048701528286602481845afa95861561084d57879661081c575b506107a890846107a26dffffffffffffffffffffffffffff98896008541690612180565b916127a6565b6040519081523060048201528181602481875afa9182156108115786926107e1575b50506107a2906102449460085460701c1690612180565b90809250813d831161080a575b6107f88183611f47565b810103126102775751836107a26107ca565b503d6107ee565b6040513d88823e3d90fd5b9095508281813d8311610846575b6108348183611f47565b810103126102775751946107a861077e565b503d61082a565b6040513d89823e3d90fd5b5080fd5b50346102ca57807ffffffffffffffffffffffffffffffffffffffffffffffffffffffffffffffffc3601126102ca5760206040516103e88152f35b50346102ca5760407ffffffffffffffffffffffffffffffffffffffffffffffffffffffffffffffffc3601126102ca576108dc6108d2611ec9565b6024359033612053565b602060405160018152f35b50346102ca57807ffffffffffffffffffffffffffffffffffffffffffffffffffffffffffffffffc3601126102ca5760206040517f6e71edae12b1b97f4d1f60370fef10105fa2faae0126114a169c64845d6126c98152f35b50346102ca57807ffffffffffffffffffffffffffffffffffffffffffffffffffffffffffffffffc3601126102ca576109b460405161097e81611f0f565b600681527f554e492d56320000000000000000000000000000000000000000000000000000602082015260405191829182611f88565b0390f35b50346102ca57602090817ffffffffffffffffffffffffffffffffffffffffffffffffffffffffffffffffc3601126102ca576109f2611ec9565b90610a016001600c54146121f3565b80600c55610a2b6008546dffffffffffffffffffffffffffff91828216928260701c169160e01c90565b5093909273ffffffffffffffffffffffffffffffffffffffff806006541693816007541696604051917f70a08231000000000000000000000000000000000000000000000000000000009889845230600485015286846024818b5afa938415610dad578294610d7e575b5060405199808b523060048c0152878b602481855afa988915610d73578a9b849b9a610d40575b5030845260018952610af7610ad68660408720549c61263b565b96610aeb610af08d610aeb89549485926122e2565b612258565b9d8d6122e2565b998b151580610d37575b15610cb3576024939291858b9230825260018452610b23816040842054612180565b308352600185526040832055610b3a818354612180565b82556040519081527fddf252ad1be2c89b69c2b068fc378daa952ba7f163c4a11628f55a4df523b3ef843092a3610b728d8b836127a6565b610b7d8c8b866127a6565b604051948580928582523060048301525afa928315610283579089918594610c82575b5060246040518094819382523060048301525afa928315610c765792610c40575b5098610bd0929160409a6123e7565b610c16575b855191858352848484015216907fdccd412f0b1252819cb1fd330b93224ca42612892bb3f4f789976e6d81936496863392a36001600c558351928352820152f35b610c386008546dffffffffffffffffffffffffffff808260701c1691166122e2565b600b55610bd5565b929150988683813d8311610c6f575b610c598183611f47565b8101031261027757915191989091906040610bc1565b503d610c4f565b604051903d90823e3d90fd5b8281939295503d8311610cac575b610c9a8183611f47565b81010312610277578890519238610ba0565b503d610c90565b60848a604051907f08c379a00000000000000000000000000000000000000000000000000000000082526004820152602860248201527f556e697377617056323a20494e53554646494349454e545f4c4951554944495460448201527f595f4255524e45440000000000000000000000000000000000000000000000006064820152fd5b508a1515610b01565b8980929c50819b503d8311610d6c575b610d5a8183611f47565b81010312610277578a98519938610abc565b503d610d50565b6040513d85823e3d90fd5b9093508681813d8311610da6575b610d968183611f47565b8101031261027757519238610a95565b503d610d8c565b6040513d84823e3d90fd5b50346102ca5760207ffffffffffffffffffffffffffffffffffffffffffffffffffffffffffffffffc3601126102ca57604060209173ffffffffffffffffffffffffffffffffffffffff610e0a611ec9565b168152600483522054604051908152f35b50346102ca57807ffffffffffffffffffffffffffffffffffffffffffffffffffffffffffffffffc3601126102ca576020600b54604051908152f35b50346102ca5760207ffffffffffffffffffffffffffffffffffffffffffffffffffffffffffffffffc3601126102ca57604060209173ffffffffffffffffffffffffffffffffffffffff610ea9611ec9565b168152600183522054604051908152f35b50346102ca57602090817ffffffffffffffffffffffffffffffffffffffffffffffffffffffffffffffffc3601126102ca57610ef4611ec9565b90610f036001600c54146121f3565b80600c55610f2d6008546dffffffffffffffffffffffffffff91828216928260701c169160e01c90565b50919073ffffffffffffffffffffffffffffffffffffffff928360065416906040519487866024817f70a0823100000000000000000000000000000000000000000000000000000000968782523060048301525afa9586156102bf579088918697611238575b50600754169260246040518095819382523060048301525afa918215610283578492611209575b506dffffffffffffffffffffffffffff9283811692610fd98488612180565b9685841694610fe88684612180565b9789610ff4878761263b565b9782549384156000146111d55750506110199250611014915089906122e2565b61238d565b7ffffffffffffffffffffffffffffffffffffffffffffffffffffffffffffffc1881019081116111a6579861104f6000546120ea565b6000556000805260018b526110686040600020546120ea565b6000805260018c526040600020556000807fddf252ad1be2c89b69c2b068fc378daa952ba7f163c4a11628f55a4df523b3ef8d6040516103e88152a35b891561112257906110bc8a6110c196959493612319565b6123e7565b611104575b50604051918252838201527f4c209b5fc8ad50758f13e2e1088ba56a560dff690a1c6fef26394f4c03821c4f60403392a26001600c55604051908152f35b6111199060085490808260701c1691166122e2565b600b55386110c6565b60848b604051907f08c379a00000000000000000000000000000000000000000000000000000000082526004820152602860248201527f556e697377617056323a20494e53554646494349454e545f4c4951554944495460448201527f595f4d494e5445440000000000000000000000000000000000000000000000006064820152fd5b7f4e487b7100000000000000000000000000000000000000000000000000000000600052601160045260246000fd5b6111e9610aeb91610aeb876111f0966122e2565b948c6122e2565b90508082101561120257505b986110a5565b90506111fc565b9091508681813d8311611231575b6112218183611f47565b8101031261027757519038610fba565b503d611217565b8281939298503d8311611262575b6112508183611f47565b81010312610277578790519538610f93565b503d611246565b50346102ca57807ffffffffffffffffffffffffffffffffffffffffffffffffffffffffffffffffc3601126102ca576020600a54604051908152f35b50346102ca57807ffffffffffffffffffffffffffffffffffffffffffffffffffffffffffffffffc3601126102ca576020600954604051908152f35b50346102ca5760407ffffffffffffffffffffffffffffffffffffffffffffffffffffffffffffffffc3601126102ca57611319611ec9565b611321611eec565b73ffffffffffffffffffffffffffffffffffffffff908160055416330361137c57817fffffffffffffffffffffffff000000000000000000000000000000000000000093168360065416176006551690600754161760075580f35b60646040517f08c379a000000000000000000000000000000000000000000000000000000000815260206004820152601460248201527f556e697377617056323a20464f5242494444454e0000000000000000000000006044820152fd5b50346102ca57807ffffffffffffffffffffffffffffffffffffffffffffffffffffffffffffffffc3601126102ca576020600354604051908152f35b50346102ca57807ffffffffffffffffffffffffffffffffffffffffffffffffffffffffffffffffc3601126102ca57602060405160128152f35b50346102ca5760607ffffffffffffffffffffffffffffffffffffffffffffffffffffffffffffffffc3601126102ca576114f661148b611ec9565b611493611eec565b6044359173ffffffffffffffffffffffffffffffffffffffff811680865260209560028752604081203360005287527fffffffffffffffffffffffffffffffffffffffffffffffffffffffffffffffff604060002054036114ff575b5050612053565b60405160018152f35b80826040925260028852818120336000528852611520868360002054612180565b928152600288522033600052865260406000205538806114ef565b50346102ca57807ffffffffffffffffffffffffffffffffffffffffffffffffffffffffffffffffc3601126102ca5760209054604051908152f35b50346102ca57807ffffffffffffffffffffffffffffffffffffffffffffffffffffffffffffffffc3601126102ca57602073ffffffffffffffffffffffffffffffffffffffff60065416604051908152f35b50346102ca5760407ffffffffffffffffffffffffffffffffffffffffffffffffffffffffffffffffc3601126102ca576108dc611603611ec9565b6024359033611fee565b50346102ca57807ffffffffffffffffffffffffffffffffffffffffffffffffffffffffffffffffc3601126102ca57606063ffffffff6116696008546dffffffffffffffffffffffffffff91828216928260701c169160e01c90565b909291604051936dffffffffffffffffffffffffffff8092168552166020840152166040820152f35b50346102ca57807ffffffffffffffffffffffffffffffffffffffffffffffffffffffffffffffffc3601126102ca576109b46040516116d081611f0f565b600a81527f556e697377617020563200000000000000000000000000000000000000000000602082015260405191829182611f88565b50346102ca5760807ffffffffffffffffffffffffffffffffffffffffffffffffffffffffffffffffc3601126102ca5773ffffffffffffffffffffffffffffffffffffffff8060443516604435036108585767ffffffffffffffff60643511610858573660236064350112156108585767ffffffffffffffff60643560040135116108585736602460643560040135606435010111610858576117ad6001600c54146121f3565b81600c55600435159081158092611ebe575b15611e3a576117ea6008546dffffffffffffffffffffffffffff91828216928260701c169160e01c90565b506dffffffffffffffffffffffffffff829492166004351080611e1f575b15611d9b578260065416836007541692818560443516141580611d8d575b15611d2f57611d1b575b602435611d07575b60643560040135611bf4575b906020602492604051938480927f70a082310000000000000000000000000000000000000000000000000000000082523060048301525afa918215610811578692611bbd575b506020602493604051948580927f70a082310000000000000000000000000000000000000000000000000000000082523060048301525afa928315610811578693611b89575b506118ed6004356dffffffffffffffffffffffffffff8716612173565b821115611b82576119196119136004356dffffffffffffffffffffffffffff8816612173565b83612173565b945b6dffffffffffffffffffffffffffff82169361193960243586612173565b811115611b7b5761195561194f60243587612173565b82612173565b945b8715801590611b72575b15611aef576119b96119a2611987611978886122a4565b6119818c6122c3565b90612180565b61199c611993866122a4565b6119818b6122c3565b906122e2565b916dffffffffffffffffffffffffffff85166122e2565b90620f424091828102928184048114821517156111a657830403611a915710611a33576119e5936123e7565b60405192835260208301526004356040830152602435606083015260443516907fd78ad95fa46c994b6551d0da85fc275fe613ce37657fb8d5e3d130840159d82260803392a36001600c5580f35b60646040517f08c379a000000000000000000000000000000000000000000000000000000000815260206004820152600c60248201527f556e697377617056323a204b00000000000000000000000000000000000000006044820152fd5b60646040517f08c379a000000000000000000000000000000000000000000000000000000000815260206004820152601460248201527f64732d6d6174682d6d756c2d6f766572666c6f770000000000000000000000006044820152fd5b60846040517f08c379a0000000000000000000000000000000000000000000000000000000008152602060048201526024808201527f556e697377617056323a20494e53554646494349454e545f494e5055545f414d60448201527f4f554e54000000000000000000000000000000000000000000000000000000006064820152fd5b50851515611961565b8794611957565b859461191b565b9092506020813d602011611bb5575b81611ba560209383611f47565b81010312610277575191386118d0565b3d9150611b98565b9291506020833d602011611bec575b81611bd960209383611f47565b810103126102775791519091602061188a565b3d9150611bcc565b83604435163b15610624576040517f10d1e85c00000000000000000000000000000000000000000000000000000000815233600482015260043560248201526024356044820152608060648201526064356004013560848201526064356004013560246064350160a48301378660a46064356004013583010152868160a4817fffffffffffffffffffffffffffffffffffffffffffffffffffffffffffffffe0601f60643560040135011681010301818389604435165af1801561084d57611cbd575b50611844565b67ffffffffffffffff8197929711611cda57604052946020611cb7565b6024827f4e487b710000000000000000000000000000000000000000000000000000000081526041600452fd5b611d16602435604435856127a6565b611838565b611d2a600435604435836127a6565b611830565b60646040517f08c379a000000000000000000000000000000000000000000000000000000000815260206004820152601560248201527f556e697377617056323a20494e56414c49445f544f00000000000000000000006044820152fd5b508385604435161415611826565b60846040517f08c379a000000000000000000000000000000000000000000000000000000000815260206004820152602160248201527f556e697377617056323a20494e53554646494349454e545f4c4951554944495460448201527f59000000000000000000000000000000000000000000000000000000000000006064820152fd5b506dffffffffffffffffffffffffffff811660243510611808565b60846040517f08c379a000000000000000000000000000000000000000000000000000000000815260206004820152602560248201527f556e697377617056323a20494e53554646494349454e545f4f55545055545f4160448201527f4d4f554e540000000000000000000000000000000000000000000000000000006064820152fd5b5060243515156117bf565b6004359073ffffffffffffffffffffffffffffffffffffffff8216820361027757565b6024359073ffffffffffffffffffffffffffffffffffffffff8216820361027757565b6040810190811067ffffffffffffffff82111761056a57604052565b6080810190811067ffffffffffffffff82111761056a57604052565b90601f7fffffffffffffffffffffffffffffffffffffffffffffffffffffffffffffffe0910116810190811067ffffffffffffffff82111761056a57604052565b60208082528251818301819052939260005b858110611fda575050507fffffffffffffffffffffffffffffffffffffffffffffffffffffffffffffffe0601f8460006040809697860101520116010190565b818101830151848201604001528201611f9a565b909160207f8c5be1e5ebec7d5bd14f71427d1e84f3dd0314c0f7b2291e5b200ac8c7c3b9259173ffffffffffffffffffffffffffffffffffffffff809416938460005260028352604060002095169485600052825280604060002055604051908152a3565b909160207fddf252ad1be2c89b69c2b068fc378daa952ba7f163c4a11628f55a4df523b3ef9173ffffffffffffffffffffffffffffffffffffffff80941693600095858752600184526120aa836040892054612180565b868852600185526040882055169485815260406120ca838284205461215e565b91878152600185522055604051908152a3565b919082018092116111a657565b906103e88201918281116111a657821061210057565b60646040517f08c379a000000000000000000000000000000000000000000000000000000000815260206004820152601460248201527f64732d6d6174682d6164642d6f766572666c6f770000000000000000000000006044820152fd5b919061216a90836120dd565b91821061210057565b919082039182116111a657565b919061218c9083612173565b91821161219557565b60646040517f08c379a000000000000000000000000000000000000000000000000000000000815260206004820152601560248201527f64732d6d6174682d7375622d756e646572666c6f7700000000000000000000006044820152fd5b156121fa57565b60646040517f08c379a000000000000000000000000000000000000000000000000000000000815260206004820152601160248201527f556e697377617056323a204c4f434b45440000000000000000000000000000006044820152fd5b8115612262570490565b7f4e487b7100000000000000000000000000000000000000000000000000000000600052601260045260246000fd5b818102929181159184041417156111a657565b906103e891828102928184048114821517156111a657830403611a9157565b906003820291808304600314811517156111a6576003830403611a9157565b6000929180159182156122f9575b505015611a9157565b9150925061231161230a8483612291565b9384612258565b1438806122f0565b7fddf252ad1be2c89b69c2b068fc378daa952ba7f163c4a11628f55a4df523b3ef602073ffffffffffffffffffffffffffffffffffffffff60009361235f86865461215e565b855516938484526001825261237881604086205461215e565b858552600183526040852055604051908152a3565b90600060038311156123da57508160019080821c8281018091116111a65791905b8483106123ba57505050565b909193506123d1846123cc8184612258565b6120dd565b821c91906123ae565b916123e157565b60019150565b916dffffffffffffffffffffffffffff9081841115806125a4575b15612546576008549363ffffffff9460e01c85421603918583116111a6577f1c411e9a96e071241c2f21f7726b17ae89e3cab4c78be50e062b03a9fffbbad1966040968594168015158061253b575b80612530575b6124c1575b5050501691827bffffffffffffffffffffffffffff00000000000000000000000000007fffffffff000000000000000000000000000000000000000000000000000000004260e01b169260701b16171780600855835192835260701c166020820152a1565b6125259261250761251d936125027bffffffffffffffffffffffffffffffffffffffffffffffffffffffff9361251561250d878761250785612502896125ae565b612601565b16612291565b6009546120dd565b6009556125ae565b600a546120dd565b600a5538808061245c565b508482161515612457565b508483161515612451565b60646040517f08c379a000000000000000000000000000000000000000000000000000000000815260206004820152601360248201527f556e697377617056323a204f564552464c4f57000000000000000000000000006044820152fd5b5081831115612402565b7bffffffffffffffffffffffffffff00000000000000000000000000006dffffffffffffffffffffffffffff82169160701b16908082046e01000000000000000000000000000014901517156111a65790565b906dffffffffffffffffffffffffffff16908115612262577bffffffffffffffffffffffffffffffffffffffffffffffffffffffff160490565b60049092919273ffffffffffffffffffffffffffffffffffffffff60208160055416604051948580927f017e7e580000000000000000000000000000000000000000000000000000000082525afa92831561279a5760009361275c575b508216151593600b54918560001461274b57826126b6575b50505050565b6110146126da916126e0936dffffffffffffffffffffffffffff80911691166122e2565b9161238d565b908181116126ef575b806126b0565b6126ff60005461199c8484612180565b906005810290808204600514811517156111a6576005820403611a915761272f926127299161215e565b90612258565b8061273b575b806126e9565b61274491612319565b3880612735565b5050905061275557565b6000600b55565b6020939193813d8211612792575b8161277760209383611f47565b8101031261085857519083821682036102ca57509138612698565b3d915061276a565b6040513d6000823e3d90fd5b90604051926127b484611f0f565b601984527f7472616e7366657228616464726573732c75696e7432353629000000000000006020809501526040519073ffffffffffffffffffffffffffffffffffffffff858301937fa9059cbb00000000000000000000000000000000000000000000000000000000855216602483015260448201526044815261283781611f2b565b600092839283809351925af1903d15612946573d67ffffffffffffffff8111611cda576040519061288f857fffffffffffffffffffffffffffffffffffffffffffffffffffffffffffffffe0601f8401160183611f47565b81523d828583013e5b82612906575b5050156128a85750565b606490604051907f08c379a00000000000000000000000000000000000000000000000000000000082526004820152601a60248201527f556e697377617056323a205452414e534645525f4641494c45440000000000006044820152fd5b8051925082159190848315612922575b5050509050388061289e565b919381809450010312610858578201519081151582036102ca575080388084612916565b606061289856fea2646970667358221220a6a61510aedc012ef85581d968482cc3a5ab2aa5a617522f36fd83082b5f066264736f6c63430008130033"
        }
      ],
      "isFixedGasLimit": false
    },
    {
      "hash": "0x86c395533bc58c444e4a6170ff578c76b9674ebf77fa7eba30542152ea347ca9",
      "transactionType": "CALL",
      "contractName": "Token",
      "contractAddress": "0xaCB3bc70A807fa1F5f36c80C7C2c0402d9341D5B",
      "function": "transfer(address,uint256)",
      "arguments": [
        "0x77366F5c0E2dB68493a57f0c1663f482c2300E14",
        "1000000000000000000000"
      ],
      "transaction": {
        "type": "0x02",
        "from": "0xff65689a4aeb6eadd18cad2de0022f8aa18b67de",
        "to": "0xacb3bc70a807fa1f5f36c80c7c2c0402d9341d5b",
        "gas": "0x109ad",
        "value": "0x0",
        "data": "0xa9059cbb00000000000000000000000077366f5c0e2db68493a57f0c1663f482c2300e1400000000000000000000000000000000000000000000003635c9adc5dea00000",
        "nonce": "0x41",
        "accessList": []
      },
      "additionalContracts": [],
      "isFixedGasLimit": false
    },
    {
      "hash": "0x3d482f13f5b62fedd92e46920bebe8f44e9928fc275e3185879f1274f548f129",
      "transactionType": "CALL",
      "contractName": "WETH9",
      "contractAddress": "0x24A6F9C58EC4c3e8C009Ae7E4E07B17Df019a47a",
      "function": "transfer(address,uint256)",
      "arguments": [
        "0x77366F5c0E2dB68493a57f0c1663f482c2300E14",
        "100000000000000000"
      ],
      "transaction": {
        "type": "0x02",
        "from": "0xff65689a4aeb6eadd18cad2de0022f8aa18b67de",
        "to": "0x24a6f9c58ec4c3e8c009ae7e4e07b17df019a47a",
        "gas": "0x10af5",
        "value": "0x0",
        "data": "0xa9059cbb00000000000000000000000077366f5c0e2db68493a57f0c1663f482c2300e14000000000000000000000000000000000000000000000000016345785d8a0000",
        "nonce": "0x42",
        "accessList": []
      },
      "additionalContracts": [],
      "isFixedGasLimit": false
    },
    {
      "hash": "0xd8214883f4e0391f9182d0d658541c7f94c6be4a878539ecb88773648d4f9cfd",
      "transactionType": "CALL",
      "contractName": "src/tokens/UniswapV2Factory.sol:UniswapV2Pair",
      "contractAddress": "0x77366F5c0E2dB68493a57f0c1663f482c2300E14",
      "function": "sync()",
      "arguments": [],
      "transaction": {
        "type": "0x02",
        "from": "0xff65689a4aeb6eadd18cad2de0022f8aa18b67de",
        "to": "0x77366f5c0e2db68493a57f0c1663f482c2300e14",
        "gas": "0x15460",
        "value": "0x0",
        "data": "0xfff6cae9",
        "nonce": "0x43",
        "accessList": []
      },
      "additionalContracts": [],
      "isFixedGasLimit": false
    }
  ],
  "receipts": [
    {
      "transactionHash": "0x41bad8328efac6bc98830a4e6053193f3ac3174983e74ab9e8e52fc47a7baab0",
      "transactionIndex": "0xf",
      "blockHash": "0x691bfdff1639624f3ff0bff929893e6c81eba1bd7c95739652ceb958ca40d24e",
      "blockNumber": "0x2969fdf",
      "from": "0xfF65689a4AEB6EaDd18caD2dE0022f8Aa18b67de",
      "to": "0x24A6F9C58EC4c3e8C009Ae7E4E07B17Df019a47a",
      "cumulativeGasUsed": "0x118147",
      "gasUsed": "0xafea",
      "contractAddress": null,
      "logs": [
        {
          "address": "0x0000000000000000000000000000000000001010",
          "topics": [
            "0xe6497e3ee548a3372136af2fcb0696db31fc6cf20260707645068bd3fe97f3c4",
            "0x0000000000000000000000000000000000000000000000000000000000001010",
            "0x000000000000000000000000ff65689a4aeb6eadd18cad2de0022f8aa18b67de",
            "0x00000000000000000000000024a6f9c58ec4c3e8c009ae7e4e07b17df019a47a"
          ],
          "data": "0x000000000000000000000000000000000000000000000000016345785d8a0000000000000000000000000000000000000000000000000005e7fb54a33ede5ef90000000000000000000000000000000000000000000000000000000000000000000000000000000000000000000000000000000000000005e6980f2ae1545ef9000000000000000000000000000000000000000000000000016345785d8a0000",
          "blockHash": "0x691bfdff1639624f3ff0bff929893e6c81eba1bd7c95739652ceb958ca40d24e",
          "blockNumber": "0x2969fdf",
          "transactionHash": "0x41bad8328efac6bc98830a4e6053193f3ac3174983e74ab9e8e52fc47a7baab0",
          "transactionIndex": "0xf",
          "logIndex": "0x1e",
          "removed": false
        },
        {
          "address": "0x24A6F9C58EC4c3e8C009Ae7E4E07B17Df019a47a",
          "topics": [
            "0xe1fffcc4923d04b559f4d29a8bfc6cda04eb5b0d3c460751c2402c5c5cc9109c",
            "0x000000000000000000000000ff65689a4aeb6eadd18cad2de0022f8aa18b67de"
          ],
          "data": "0x000000000000000000000000000000000000000000000000016345785d8a0000",
          "blockHash": "0x691bfdff1639624f3ff0bff929893e6c81eba1bd7c95739652ceb958ca40d24e",
          "blockNumber": "0x2969fdf",
          "transactionHash": "0x41bad8328efac6bc98830a4e6053193f3ac3174983e74ab9e8e52fc47a7baab0",
          "transactionIndex": "0xf",
          "logIndex": "0x1f",
          "removed": false
        },
        {
          "address": "0x0000000000000000000000000000000000001010",
          "topics": [
            "0x4dfe1bbbcf077ddc3e01291eea2d5c70c2b422b415d95645b9adcfd678cb1d63",
            "0x0000000000000000000000000000000000000000000000000000000000001010",
            "0x000000000000000000000000ff65689a4aeb6eadd18cad2de0022f8aa18b67de",
            "0x000000000000000000000000f903ba9e006193c1527bfbe65fe2123704ea3f99"
          ],
          "data": "0x0000000000000000000000000000000000000000000000000000e554717a2c3c000000000000000000000000000000000000000000000005e7fca406bf43a602000000000000000000000000000000000000000000001249d70a9c1ce8d1b1a1000000000000000000000000000000000000000000000005e7fbbeb24dc979c6000000000000000000000000000000000000000000001249d70b81715a4bdddd",
          "blockHash": "0x691bfdff1639624f3ff0bff929893e6c81eba1bd7c95739652ceb958ca40d24e",
          "blockNumber": "0x2969fdf",
          "transactionHash": "0x41bad8328efac6bc98830a4e6053193f3ac3174983e74ab9e8e52fc47a7baab0",
          "transactionIndex": "0xf",
          "logIndex": "0x20",
          "removed": false
        }
      ],
      "status": "0x1",
      "logsBloom": "0x00000008000000000000000000000000000000000000000000000010000000000000000080000020000000100000000040008000000000000000000000000000000002000000000000080000000000800000000000000000000100008000000400000000000000000000000000000000000000000000000080000000000000000000000000000000000000000000000000000001000000000000000000000000200000000000000000000000000800000000000000000000000000000000004100000000000000000001000000000000000000000000800000148000001000000000000000000000000000000000000000000000000000400000000000100000",
      "type": "0x2",
      "effectiveGasPrice": "0x14dbbd0f5"
    },
    {
      "transactionHash": "0xeacb01724713e38845538ec1643aefef0c4215935f50daaeb2523470207b842d",
      "transactionIndex": "0x10",
      "blockHash": "0x691bfdff1639624f3ff0bff929893e6c81eba1bd7c95739652ceb958ca40d24e",
      "blockNumber": "0x2969fdf",
      "from": "0xfF65689a4AEB6EaDd18caD2dE0022f8Aa18b67de",
      "to": "0xaCB3bc70A807fa1F5f36c80C7C2c0402d9341D5B",
      "cumulativeGasUsed": "0x1248c2",
      "gasUsed": "0xc77b",
      "contractAddress": null,
      "logs": [
        {
          "address": "0xaCB3bc70A807fa1F5f36c80C7C2c0402d9341D5B",
          "topics": [
            "0xddf252ad1be2c89b69c2b068fc378daa952ba7f163c4a11628f55a4df523b3ef",
            "0x0000000000000000000000000000000000000000000000000000000000000000",
            "0x000000000000000000000000ff65689a4aeb6eadd18cad2de0022f8aa18b67de"
          ],
          "data": "0x00000000000000000000000000000000000000000000003635c9adc5dea00000",
          "blockHash": "0x691bfdff1639624f3ff0bff929893e6c81eba1bd7c95739652ceb958ca40d24e",
          "blockNumber": "0x2969fdf",
          "transactionHash": "0xeacb01724713e38845538ec1643aefef0c4215935f50daaeb2523470207b842d",
          "transactionIndex": "0x10",
          "logIndex": "0x21",
          "removed": false
        },
        {
          "address": "0x0000000000000000000000000000000000001010",
          "topics": [
            "0x4dfe1bbbcf077ddc3e01291eea2d5c70c2b422b415d95645b9adcfd678cb1d63",
            "0x0000000000000000000000000000000000000000000000000000000000001010",
            "0x000000000000000000000000ff65689a4aeb6eadd18cad2de0022f8aa18b67de",
            "0x000000000000000000000000f903ba9e006193c1527bfbe65fe2123704ea3f99"
          ],
          "data": "0x0000000000000000000000000000000000000000000000000001040d58a02882000000000000000000000000000000000000000000000005e6987939f0352b10000000000000000000000000000000000000000000001249d70b81715a4bdddd000000000000000000000000000000000000000000000005e697752c9795028e000000000000000000000000000000000000000000001249d70c857eb2ec065f",
          "blockHash": "0x691bfdff1639624f3ff0bff929893e6c81eba1bd7c95739652ceb958ca40d24e",
          "blockNumber": "0x2969fdf",
          "transactionHash": "0xeacb01724713e38845538ec1643aefef0c4215935f50daaeb2523470207b842d",
          "transactionIndex": "0x10",
          "logIndex": "0x22",
          "removed": false
        }
      ],
      "status": "0x1",
      "logsBloom": "0x00000000000000000000000000000004000000000000000000000010000000000000000080000020000000000000000040008000000000000000000000000000000002000000000000000008000000800000000000000000000100080000000000000000020000000000000000000800000000000000000080000010000000000000000000000000000000000000000000000000000000000000000000000000200000000000000000000000010000000000000000000000000000000000004000000002000000000001000000000000000000000000000000100000001020000000000000000000000000000000000000000000000000000000000000100000",
      "type": "0x2",
      "effectiveGasPrice": "0x14dbbd0f5"
    },
    {
      "transactionHash": "0xb89f5f9812587668af636629254d7092d2b7a805a1febebd595dc0d18f59ab60",
      "transactionIndex": "0x11",
      "blockHash": "0x691bfdff1639624f3ff0bff929893e6c81eba1bd7c95739652ceb958ca40d24e",
      "blockNumber": "0x2969fdf",
      "from": "0xfF65689a4AEB6EaDd18caD2dE0022f8Aa18b67de",
      "to": "0x6c4e0B7330B5D2d975Cf74b77f89b5471F2793Be",
      "cumulativeGasUsed": "0x36c5ee",
      "gasUsed": "0x247d2c",
      "contractAddress": null,
      "logs": [
        {
          "address": "0x6c4e0B7330B5D2d975Cf74b77f89b5471F2793Be",
          "topics": [
            "0x0d3648bd0f6ba80134a33ba9275ac585d9d315f0ad8355cddefde31afa28d0e9",
            "0x00000000000000000000000024a6f9c58ec4c3e8c009ae7e4e07b17df019a47a",
            "0x000000000000000000000000acb3bc70a807fa1f5f36c80c7c2c0402d9341d5b"
          ],
          "data": "0x00000000000000000000000077366f5c0e2db68493a57f0c1663f482c2300e140000000000000000000000000000000000000000000000000000000000000001",
          "blockHash": "0x691bfdff1639624f3ff0bff929893e6c81eba1bd7c95739652ceb958ca40d24e",
          "blockNumber": "0x2969fdf",
          "transactionHash": "0xb89f5f9812587668af636629254d7092d2b7a805a1febebd595dc0d18f59ab60",
          "transactionIndex": "0x11",
          "logIndex": "0x23",
          "removed": false
        },
        {
          "address": "0x0000000000000000000000000000000000001010",
          "topics": [
            "0x4dfe1bbbcf077ddc3e01291eea2d5c70c2b422b415d95645b9adcfd678cb1d63",
            "0x0000000000000000000000000000000000000000000000000000000000001010",
            "0x000000000000000000000000ff65689a4aeb6eadd18cad2de0022f8aa18b67de",
            "0x000000000000000000000000f903ba9e006193c1527bfbe65fe2123704ea3f99"
          ],
          "data": "0x000000000000000000000000000000000000000000000000002f919771a03588000000000000000000000000000000000000000000000005e697752c97895259000000000000000000000000000000000000000000001249d70c857eb2ec065f000000000000000000000000000000000000000000000005e667e39525e91cd1000000000000000000000000000000000000000000001249d73c1716248c3be7",
          "blockHash": "0x691bfdff1639624f3ff0bff929893e6c81eba1bd7c95739652ceb958ca40d24e",
          "blockNumber": "0x2969fdf",
          "transactionHash": "0xb89f5f9812587668af636629254d7092d2b7a805a1febebd595dc0d18f59ab60",
          "transactionIndex": "0x11",
          "logIndex": "0x24",
          "removed": false
        }
      ],
      "status": "0x1",
      "logsBloom": "0x00000000000000000000000000000000000000000000000040000010000000000000000080000020000000000000004040008000000000000000000000000000000002000000000000080008000000800000000000000000000100000008000000000000000080000000000000000000000000000000000080000000000000000000000000000000000000000000000000000000000000000000000000000000200000000800000000000000000800000000000000000000000000000000004100000000000000000001000000000040000000000000000000100000001000000000000000000000080000000000000000000000000000000000000000100000",
      "type": "0x2",
      "effectiveGasPrice": "0x14dbbd0f5"
    },
    {
      "transactionHash": "0x86c395533bc58c444e4a6170ff578c76b9674ebf77fa7eba30542152ea347ca9",
      "transactionIndex": "0x12",
      "blockHash": "0x691bfdff1639624f3ff0bff929893e6c81eba1bd7c95739652ceb958ca40d24e",
      "blockNumber": "0x2969fdf",
      "from": "0xfF65689a4AEB6EaDd18caD2dE0022f8Aa18b67de",
      "to": "0xaCB3bc70A807fa1F5f36c80C7C2c0402d9341D5B",
      "cumulativeGasUsed": "0x377b97",
      "gasUsed": "0xb5a9",
      "contractAddress": null,
      "logs": [
        {
          "address": "0xaCB3bc70A807fa1F5f36c80C7C2c0402d9341D5B",
          "topics": [
            "0xddf252ad1be2c89b69c2b068fc378daa952ba7f163c4a11628f55a4df523b3ef",
            "0x000000000000000000000000ff65689a4aeb6eadd18cad2de0022f8aa18b67de",
            "0x00000000000000000000000077366f5c0e2db68493a57f0c1663f482c2300e14"
          ],
          "data": "0x00000000000000000000000000000000000000000000003635c9adc5dea00000",
          "blockHash": "0x691bfdff1639624f3ff0bff929893e6c81eba1bd7c95739652ceb958ca40d24e",
          "blockNumber": "0x2969fdf",
          "transactionHash": "0x86c395533bc58c444e4a6170ff578c76b9674ebf77fa7eba30542152ea347ca9",
          "transactionIndex": "0x12",
          "logIndex": "0x25",
          "removed": false
        },
        {
          "address": "0x0000000000000000000000000000000000001010",
          "topics": [
            "0x4dfe1bbbcf077ddc3e01291eea2d5c70c2b422b415d95645b9adcfd678cb1d63",
            "0x0000000000000000000000000000000000000000000000000000000000001010",
            "0x000000000000000000000000ff65689a4aeb6eadd18cad2de0022f8aa18b67de",
            "0x000000000000000000000000f903ba9e006193c1527bfbe65fe2123704ea3f99"
          ],
          "data": "0x0000000000000000000000000000000000000000000000000000ecd21baf85d6000000000000000000000000000000000000000000000005e667e39523c5c73d000000000000000000000000000000000000000000001249d73c1716248c3be7000000000000000000000000000000000000000000000005e666f6c308164167000000000000000000000000000000000000000000001249d73d03e8403bc1bd",
          "blockHash": "0x691bfdff1639624f3ff0bff929893e6c81eba1bd7c95739652ceb958ca40d24e",
          "blockNumber": "0x2969fdf",
          "transactionHash": "0x86c395533bc58c444e4a6170ff578c76b9674ebf77fa7eba30542152ea347ca9",
          "transactionIndex": "0x12",
          "logIndex": "0x26",
          "removed": false
        }
      ],
      "status": "0x1",
      "logsBloom": "0x00000000000000000000000000000004000000000000000000000810000000000000000080000020000000000000000040008000000000000000000000000000000002000000000000000008000000800000000000000000000100080000000000000000000000000000000000000000000000000000000080000010000000000000000000000000000000000000000000000000000000000000000000000000200000000000000000000000010001000000000000000000000000000000014000000002000000000001000000000000000000000000000000100000001000000000000000000000000000000000000000000000000000000000000000100000",
      "type": "0x2",
      "effectiveGasPrice": "0x14dbbd0f5"
    },
    {
      "transactionHash": "0x3d482f13f5b62fedd92e46920bebe8f44e9928fc275e3185879f1274f548f129",
      "transactionIndex": "0x13",
      "blockHash": "0x691bfdff1639624f3ff0bff929893e6c81eba1bd7c95739652ceb958ca40d24e",
      "blockNumber": "0x2969fdf",
      "from": "0xfF65689a4AEB6EaDd18caD2dE0022f8Aa18b67de",
      "to": "0x24A6F9C58EC4c3e8C009Ae7E4E07B17Df019a47a",
      "cumulativeGasUsed": "0x383220",
      "gasUsed": "0xb689",
      "contractAddress": null,
      "logs": [
        {
          "address": "0x24A6F9C58EC4c3e8C009Ae7E4E07B17Df019a47a",
          "topics": [
            "0xddf252ad1be2c89b69c2b068fc378daa952ba7f163c4a11628f55a4df523b3ef",
            "0x000000000000000000000000ff65689a4aeb6eadd18cad2de0022f8aa18b67de",
            "0x00000000000000000000000077366f5c0e2db68493a57f0c1663f482c2300e14"
          ],
          "data": "0x000000000000000000000000000000000000000000000000016345785d8a0000",
          "blockHash": "0x691bfdff1639624f3ff0bff929893e6c81eba1bd7c95739652ceb958ca40d24e",
          "blockNumber": "0x2969fdf",
          "transactionHash": "0x3d482f13f5b62fedd92e46920bebe8f44e9928fc275e3185879f1274f548f129",
          "transactionIndex": "0x13",
          "logIndex": "0x27",
          "removed": false
        },
        {
          "address": "0x0000000000000000000000000000000000001010",
          "topics": [
            "0x4dfe1bbbcf077ddc3e01291eea2d5c70c2b422b415d95645b9adcfd678cb1d63",
            "0x0000000000000000000000000000000000000000000000000000000000001010",
            "0x000000000000000000000000ff65689a4aeb6eadd18cad2de0022f8aa18b67de",
            "0x000000000000000000000000f903ba9e006193c1527bfbe65fe2123704ea3f99"
          ],
          "data": "0x0000000000000000000000000000000000000000000000000000edf620064f16000000000000000000000000000000000000000000000005e666f6c3080b9c80000000000000000000000000000000000000000000001249d73d03e8403bc1bd000000000000000000000000000000000000000000000005e66608cce8054d6a000000000000000000000000000000000000000000001249d73df1de604210d3",
          "blockHash": "0x691bfdff1639624f3ff0bff929893e6c81eba1bd7c95739652ceb958ca40d24e",
          "blockNumber": "0x2969fdf",
          "transactionHash": "0x3d482f13f5b62fedd92e46920bebe8f44e9928fc275e3185879f1274f548f129",
          "transactionIndex": "0x13",
          "logIndex": "0x28",
          "removed": false
        }
      ],
      "status": "0x1",
      "logsBloom": "0x00000008000000000000000000000000000000000000000000000810000000000000000080000020000000000000000040008000000000000000000000000000000002000000000000000008000000800000000000000000000100000000000400000000000000000000000000000000000000000000000080000010000000000000000000000000000000000000000000000000000000000000000000000000200000000000000000000000000001000000000000000000000000000000014000000002000000000001000000000000000000000000000000140000001000000000000000000000000000000000000000000000000000000000000000100000",
      "type": "0x2",
      "effectiveGasPrice": "0x14dbbd0f5"
    },
    {
      "transactionHash": "0xd8214883f4e0391f9182d0d658541c7f94c6be4a878539ecb88773648d4f9cfd",
      "transactionIndex": "0x14",
      "blockHash": "0x691bfdff1639624f3ff0bff929893e6c81eba1bd7c95739652ceb958ca40d24e",
      "blockNumber": "0x2969fdf",
      "from": "0xfF65689a4AEB6EaDd18caD2dE0022f8Aa18b67de",
      "to": "0x77366F5c0E2dB68493a57f0c1663f482c2300E14",
      "cumulativeGasUsed": "0x39288e",
      "gasUsed": "0xf66e",
      "contractAddress": null,
      "logs": [
        {
          "address": "0x77366F5c0E2dB68493a57f0c1663f482c2300E14",
          "topics": [
            "0x1c411e9a96e071241c2f21f7726b17ae89e3cab4c78be50e062b03a9fffbbad1"
          ],
          "data": "0x000000000000000000000000000000000000000000000000016345785d8a000000000000000000000000000000000000000000000000003635c9adc5dea00000",
          "blockHash": "0x691bfdff1639624f3ff0bff929893e6c81eba1bd7c95739652ceb958ca40d24e",
          "blockNumber": "0x2969fdf",
          "transactionHash": "0xd8214883f4e0391f9182d0d658541c7f94c6be4a878539ecb88773648d4f9cfd",
          "transactionIndex": "0x14",
          "logIndex": "0x29",
          "removed": false
        },
        {
          "address": "0x0000000000000000000000000000000000001010",
          "topics": [
            "0x4dfe1bbbcf077ddc3e01291eea2d5c70c2b422b415d95645b9adcfd678cb1d63",
            "0x0000000000000000000000000000000000000000000000000000000000001010",
            "0x000000000000000000000000ff65689a4aeb6eadd18cad2de0022f8aa18b67de",
            "0x000000000000000000000000f903ba9e006193c1527bfbe65fe2123704ea3f99"
          ],
          "data": "0x00000000000000000000000000000000000000000000000000014141e170c6d4000000000000000000000000000000000000000000000005e66608cce7fa9b63000000000000000000000000000000000000000000001249d73df1de604210d3000000000000000000000000000000000000000000000005e664c78b0689d48f000000000000000000000000000000000000000000001249d73f332041b2d7a7",
          "blockHash": "0x691bfdff1639624f3ff0bff929893e6c81eba1bd7c95739652ceb958ca40d24e",
          "blockNumber": "0x2969fdf",
          "transactionHash": "0xd8214883f4e0391f9182d0d658541c7f94c6be4a878539ecb88773648d4f9cfd",
          "transactionIndex": "0x14",
          "logIndex": "0x2a",
          "removed": false
        }
      ],
      "status": "0x1",
      "logsBloom": "0x00000000000000000000000080000000000000000000000000000010000000000000000080020020000000000000000040008000000000000000000000000000000002000000000000000000000000800000000000000000000100000000000000000000000000000000000000000000000000000000000080000000000000000000000000000000000000000000000800000000000000080000000000000000200000000000000000000000000000000000000000000000000000000000004000000000000000000001000000000000000000000000001000100000001000000000000000000000000000000100000000000000000000000000000000100000",
      "type": "0x2",
      "effectiveGasPrice": "0x14dbbd0f5"
    }
  ],
  "libraries": [],
  "pending": [],
  "returns": {},
  "timestamp": 1702257712,
  "chain": 80001,
  "multi": false,
  "commit": "9d42e8b"
}